:100000000C942A000C9434000C9434000C943400AA
:100010000C9434000C9434000C9434000C94340090
:100020000C9434000C9434000C9434000C94340080
:100030000C9434000C9434000C9434000C94340070
:100040000C9434000C9434000C9434000C94340060
:100050000C94340011241FBECFE5D4E0DEBFCDBF29
:100060000E946E000C94D4000C94000081EC8DBDB5
:100070008BEA8CBD1FBC81E08EBD08B602FEFDCFB1
:100080001EBC84E088BF089583EF8DBD8DEF8CBDCD
:100090001FBC83E08EBD08B602FEFDCF1EBC84E00F
:1000A00088BF08958FEF8DBD8BEA8CBD1FBC81E0AA
:1000B0008EBD08B602FEFDCF1EBC84E088BF089549
:1000C00083EF8DBD85E08CBD1FBC83E08EBD08B67F
:1000D00002FEFDCF1EBC84E088BF0895CF92DF9260
:1000E000EF92FF920F931F93CF93DF938FEF87BB16
:1000F00088E893E124E131E0F9013197F1F70197C4
:10010000D9F720E030E093E3C92E90E1D92E8CECB2
:10011000E82E87ECF82E04E111E00AC0C09AC6016F
:100120000197F1F7C098C7010197F1F72F5F3F4F93
:10013000253131059CF380E49FE1F8013197F1F717
:100140000197D9F7C0E0D0E0C09A0E945200C09851
:100150000E9460002196C333D105B1F780E49FE18E
:10016000F8013197F1F70197D9F720E030E0E0CFBF
:1001700082EA8DBD80E88CBD1FBC81E08EBD08B6D3
:1001800002FEFDCF1EBC84E088BF089584EF8DBDC4
:100190008AE78CBD1FBC83E08EBD08B602FEFDCF92
:0C01A0001EBC84E088BF0895F894FFCFD7
:00000001FF
